:1005C100207777772E68616F74756E2E636F6D205B
:1005D10000436F646520202020202020202020203F
:1005E10020003031323334353637383941424344D3
:0205F10045467D
:1005F300112C2020202020202020202020202020FB
:1006030020200013412020202020202020202020F3
:080613002020202020202000FF
:03000B00020006EA
:030006000525329B
:03000300020519DA
:07051900C0E0C0D075D00066
:10052000300929E525C3943F500AE525C3942140AD
:100530000375220074542522F8A62575250005228E
:10054000E522B4210CD20A7522008005752500D25F
:0105500009A1
:05055100D0D0D0E03223
:0D06CC00758902E4F58CF58AD2A9D28C2242
:0706D900D288D2A8D2AF22A3
:1004D400E53DC4540F9005E393F531E53D540F9386
:1004E400F532E53EC4540F93F534E53E540F93F5CD
:1004F40035E53FC4540F93F537E53F540F93F53872
:10050400E540C4540F93F53AE540540F93F53B127C
:050514000556C20B2298
:10058E007E01E4FD7C0174542EF8E6D394074005F9
:10059E004307808000ECC394085004EFC313FF0E92
:1005AE000CBC09E2743D2DF8A607E4FF0DBD04D482
:0205BE00D20B5E
:0105C0002218
:0706BE007FFA1206C57FFA66
:0606C500EFC313FFDFFE8E
:0106CB00220C
:0F06AF00AE071EEE60081206BE1206BE80F422D1
:10069A00AD077F051206AFC2A6C2A4C2A500D2A6A4
:0506AA008D80C2A622B4
:10068300AD077F051206AFC2A6D2A4C2A500D2A6AB
:070693008D80C2A6C2A42263
:04066600AE07AB052B
:10066A00EEC39410EE400524B0FC80032480FCAF56
:09067A000412069AAF0302068384
:080556007B007A00792C7F0183
:06055E008B088A09890ADE
:10056400EFC454F0F50BE4F50CAF0B050BAB08AA84
:1005740009A90A850C8275830012036AFD120666B6
:09058400050CE50CC3941040E0E5
:01058D00224B
:100643007F0F1206AF7F3812069A7F3812069A7F01
:100653003812069A7F0612069A7F0C12069A7F01B9
:0306630002069AF2
:100484001206D91206CC1206437F0F1206AF750B63
:10049400FF750C05750DC17B007A00794112006A65
:1004A4007B007A007941E4FF12055E750BFF750C41
:1004B40005750DD27B007A00792C12006A1205565C
:1004C400300A0512058EC20A300BF51204D480F0EE
:030000000203F800
:0C03F800787FE4F6D8FD75817402043FA4
:10036A00BB010CE58229F582E5833AF583E0225048
:10037A0006E92582F8E622BBFE06E92582F8E22292
:0D038A00E58229F582E5833AF583E49322AC
:10000E00E517240BF8E60517227808300702780B5F
:10001E00E475F0011203C20203972000EB7F2ED28B
:10002E00008018EF540F2490D43440D4FF30040BCA
:10003E00EF24BFB41A0050032461FFE518600215C7
:10004E0018051BE51B7002051A30070D7808E475BC
:10005E00F0011203C2EF0203B002061C7403D207B2
:10006E008003E4C207F5178B088A09890AE4F5189C
:10007E00F51AF51BE51860077F2012004980F5750B
:10008E0019FFC201C200C202C203C205C206C208E3
:10009E00120017FF700D3007057F0012005AAF1BBC
:1000AE00AE1A22B4255FC2D5C204120017FF24D0A7
:1000BE00B40A00501A75F00A781830D50508B6FF44
:1000CE000106C6A426F620D5047002D20380D924D8
:1000DE00CFB41A00EF5004C2E5D20402025AD20184
:1000EE0080C6D20080C0D20280BCD2D580BAD205E2
:1000FE0080B47F201200492002077401B518004019
:10010E00F112000EFF120049020082D208D20680C0
:10011E009512000EFB12000EFA12000EF94A4B70E9
:10012E0006792B7A037BFF20022EE518602A7E00CB
:10013E008E8275830012036A60060EEE651970F0EA
:10014E00C2D5EBC0E0EAC0E0E9C0E0EE1202A1D0F9
:10015E00E0F9D0E0FAD0E0FB120397FF60AAEBC003
:10016E00E0EAC0E0E9C0E0120049D0E02401F9D095
:10017E00E03400FAD0E0FBE5190460DCD519D98033
:10018E00877BFF7A02799DD202809C79108002795A
:10019E0008C206C2088008D2D5790A8004790AC23C
:1001AE00D5E519047002F519E4FAFDFEFF12000EF2
:1001BE00FC7B0820011312000EFD7B1030000A128A
:1001CE00000EFE12000EFF7B20EC3382D592D5502E
:1001DE0013C3E43000069FFFE49EFEE42001039D5E
:1001EE00FDE49CFCE4CBF8C201EC700CCFCECDCC80
:1001FE00E824F8F870F38017C3EF33FFEE33FEED0B
:10020E0033FDEC33FCEB33FB994002FB0FD8E9EBEB
:10021E00300105F8D0E0C448B201C0E00AEC4D4E02
:10022E004F78207B0070C2EAB5190040BCC0E012C6
:10023E0002A3D0F0D0E0200104C4C0E0C4B201C0DB
:10024E00F0120032D0F0D5F0EB0200821203D20190
:10025E001F5301995800F04C00EC42019D4F01A52F
:0F026E004401A54901054301AB55018F46018F9E
:10027D0045018F47034B5000F42D00F82E011B2B29
:10028D0000FC2301192003342A00B4480000011397
:10029D003F3F3F00790AA2D5200314300509B9105C
:1002AD00020404B9080104A2D5200602500104205D
:1002BD0002689202B518005034C0E07F2030031957
:1002CD007F30A20272067205500F1202FAC202C2EC
:1002DD0006C205C2087F30800F300503E9C0E01269
:1002ED000049300503D0E0F9D0E0B518CC30051742
:1002FD007F30B9100C1200497F583004077F788089
:10030D0003B908031200493002057F2D0200497F11
:10031D00202008F87F2B2006F322920280CF286E32
:10032D00756C6C2900D20112000E3001F8C20178F3
:10033D001830D50108F60200B42D5043495812006B
:10034D000E2403B405004001E49003469312003AD5
:0D035D00743A12003AD20375180402019997
:10040400020484E493A3F8E493A34003F68001F286
:1004140008DFF48029E493A3F85407240CC8C333F9
:10042400C4540F4420C8834004F456800146F6DFC8
:10043400E4800B01020408102040809005F3E47E60
:10044400019360BCA3FF543F30E509541FFEE493BD
:10045400A360010ECF54C025E060A840B8E493A384
:10046400FAE493A3F8E493A3C8C582C8CAC583CAAF
:10047400F0A3C8C582C8CAC583CADFE9DEE780BE67
:01061B0000DE
:10039700BB010689828A83E0225002E722BBFE0264
:0903A700E32289828A83E4932297
:1003B000BB010689828A83F0225002F722BBFE012C
:0203C000F32226
:1003C200FAE6FB0808E6F925F0F618E6CA3AF6223C
:1003D200D083D082F8E4937012740193700DA3A3BA
:1003E20093F8740193F5828883E4737402936860CE
:0603F200EFA3A3A380DFCE
:10061C00EFB40A07740D120627740A309811A899C2
:10062C00B8130CC2983098FDA899C298B811F6303E
:07063C0099FDC299F5992216
:00000001FF
