:0B015E00C0F9A4B0999282F88090FFD5
:0B015200090A0A0A0A0A0A0A0A0A0A35
:040128007FE87E03EB
:10012C00EF1FAA0670011E4A600BE4FDEDC3947824
:05013C0050EE0D80F7FC
:01014100229B
:0F0142007C01740A2CF8A6041201280CBC09F3E6
:01015100228B
:10010900E4FCE4FF740B2FF8E6FE740A2FF8A60648
:0E0119000FBF08F075120A1201280CBC08E492
:0101270022B5
:1000DE007580FF75A0FFE4F5097508FE75130875A8
:1000EE008901758CFC758A6675A882D28C120142C4
:0B00FE0012012812010912012880F2F3
:03000B0002009A56
:10009A00C0E0C083C082C0D075D000C000758CFC9F
:1000AA00758A660509740A2509F8E690015E93F5D2
:1000BA00808508A0E50825E04401F508E509D39400
:1000CA000840067509007508FED000D0D0D082D04D
:0400DA0083D0E032BD
:0300000002000EED
:0C000E00787FE4F6D8FD758113020055E0
:10001A000200DEE493A3F8E493A34003F68001F21E
:10002A0008DFF48029E493A3F85407240CC8C333E7
:10003A00C4540F4420C8834004F456800146F6DFB6
:10004A00E4800B0102040810204080900152E47EF3
:10005A00019360BCA3FF543F30E509541FFEE493AB
:10006A00A360010ECF54C025E060A840B8E493A372
:10007A00FAE493A3F8E493A3C8C582C8CAC583CA9D
:10008A00F0A3C8C582C8CAC583CADFE9DEE780BE55
:01015D0000A1
:00000001FF
