:0300000002018E6C
:0C018E00787FE4F6D8FD75810C02013387
:10017A003F065B4F666D7D077F6F777C395E7971CD
:04018A00FEFDFBF784
:10016400E4FDEDC39FE49E500CE4FC0CECD39494AA
:0501740040F90D80EDD3
:010179002263
:1000F90078097C007D007BFF7A01798A7E007F0484
:100109001200D3E4FF74092FF8E6F5907E10E4FDA0
:10011900E5905E7008EF25E025E02DFF22EE25E051
:09012900FE0DBD04EB0FBF04DC68
:0101320022AA
:100133007590F0E59064F0601B7F147E00120164FB
:10014300E59064F0600E120164E59064F0600512BE
:1001530000F98F08E50890017A93F58075A0078070
:01016300CFCC
:10000300E709F608DFFA8046E709F208DFFA803EDF
:1000130088828C83E709F0A3DFFA8032E309F608CC
:10002300DFFA8078E309F208DFFA807088828C8334
:10003300E309F0A3DFFA806489828A83E0A3F608E8
:10004300DFFA805889828A83E0A3F208DFFA804CC2
:1000530080D280FA80C680D4806980F28033801099
:1000630080A680EA809A80A880DA80E280CA803302
:1000730089828A83ECFAE493A3C8C582C8CCC5837A
:10008300CCF0A3C8C582C8CCC583CCDFE9DEE7804A
:100093000D89828A83E493A3F608DFF9ECFAA9F0C9
:1000A300EDFB2289828A83ECFAE0A3C8C582C8CC1F
:1000B300C583CCF0A3C8C582C8CCC583CCDFEADE38
:1000C300E880DB89828A83E493A3F208DFF980CC9A
:1000D30088F0EF60010E4E60C388F0ED2402B40493
:1000E3000050B9F582EB2402B4040050AF2323453A
:0600F3008223900053730C
:00000001FF
