:0800C900000102030405060713
:0C00B2000A083F065B4F666D7D077F6FFC
:0A00BF00EF1F70011E144E70F722AF
:10008F0074082512F8E6F580E5129000C993F5A0E3
:10009F007F207E4E1200BF0512E512B408E2E4F590
:0300AF001280DDDF
:03000000020003F8
:0C000300787FE4F6D8FD75811202004AF7
:10000F0002008FE493A3F8E493A34003F68001F278
:10001F0008DFF48029E493A3F85407240CC8C333F2
:10002F00C4540F4420C8834004F456800146F6DFC1
:10003F00E4800B01020408102040809000B2E47E9F
:10004F00019360BCA3FF543F30E509541FFEE493B6
:10005F00A360010ECF54C025E060A840B8E493A37D
:10006F00FAE493A3F8E493A3C8C582C8CAC583CAA8
:10007F00F0A3C8C582C8CAC583CADFE9DEE780BE60
:0100BE000041
:00000001FF
