:10016400BAECCDE2D2A3BFD8C2EBB6C1C8A1C6F7E0
:1001740000207777772E616F6B656D63752E636EE4
:100184002000BCFCD6B5B1E0C2EBA3BA2D202D20D3
:10019400482000BCFCD6B5B7B4C2EBA3BA2D202DC1
:0401A40020482000CF
:0401CC007F057E002D
:0A01D000EF1FAC0670011E4C601218
:1001DA00E4F512E512C394FA50EC0000000005128F
:0201EA0080F1A2
:0101EC0022F0
:10027400C2B5D2B6D2B400000000E580339201C208
:03028400B4A20120
:010287002254
:10020D0012027440FBC2B5C2B6C2B400008F8000AA
:0C021D00000000D2B400000000C2B422B7
:1002440012027440FBD2B5C2B6C2B48F8000000063
:0A02540000D2B400000000C2B42282
:1001A8007F3412020D1201CC7F3012020D1201CCE5
:1001B8007F0C12020D1201CC7F0112020D7F057E09
:0401C800000201D060
:1000EF0075A881758801D2B2D2A3E4F58053A01F01
:1000FF007F0AFE1201D01201A8E4FDFF1201EDE408
:10010F00FEEE90016493FF60061202440E80F2E44B
:10011F00FD7F011201EDE4FEEE90017593FF600685
:10012F001202440E80F2E4FD7F021201EDE4FEEEB6
:10013F0090018693FF60061202440E80F2E4FD7F69
:10014F00031201EDE4FEEE90019793FF6006120299
:04015F00440E80F2D8
:010163002279
:03000300020006F2
:0D000600C0E0C0F0C083C082C0D075D00043
:10001300751000C2A87F0F12028830B205D2A80261
:1000230000E420B2077F0112028880F6750E007586
:100033000F0020B2FD30B2FD30B2137F01120288EF
:100043000510E510C3941E40EFD2A80200E4740823
:10005300250EF8C000E6FFC313D000F6E510C394E5
:100063000840097408250EF8E64480F6751000056B
:100073000FE50FC3940840BA050EE50EC394044080
:10008300AEE50BF4650A6004D2A88055E50A540F67
:10009300F50CE50AC4540FF50D1202297D057F0204
:1000A3001201EDAF0D1202447D067F021201EDAF86
:1000B3000C120244E50B540FF50CE50BC4540FF579
:1000C3000D1202297D057F031201EDAF0D120244CB
:1000D3007D067F031201EDAF0C12024412025ED2C1
:0100E300A874
:0B00E400D0D0D082D083D0F0D0E0322A
:10022900E4FF740C2FF8E6D394094006743726F6D8
:0A0239008004743026F60FBF02E8BF
:010243002298
:10025E00E4F5117F05120288B2A30511E511C394CE
:05026E00B440F0D2A332
:010273002268
:10028800AD071FED600BE4FEEEC3940D50F20E8037
:01029800F76E
:010299002242
:1001ED00EF70047F808013BF01047F90800CBF02ED
:1001FD00047F888005BF03027F98EF2DFF02020D5B
:0300000002029A5F
:0C029A00787FE4F6D8FD7581200200EFAB
:00000001FF
