:0A01C3003F065B4F666D7D077F6FFE
:10000E00438901758CEF758AF075A882D28CE4F560
:10001E00A0F50A751439E51575F064849001C39343
:10002E00F510E51575F06484AFF0EF75F00A849362
:10003E00F511EF75F00A84E5F0934480F512E5169C
:10004E0093F513E50DB401CB12010E8E0B8F0CE55B
:10005E000B30E713750F40630CFF630BFF050CE5C8
:10006E000C7007050B8003E4F50FE50CAE0B78045E
:10007E00CEA2E713CE13D8F8F515E50C540FF516EE
:0F008E0075F006A475F00A84F516E4F50D80846C
:03000B0002009D53
:10009D00C0E0C0D0758CEF758AF0050EE50EB43258
:1000AD0014750E00750D010508E508C3943C400557
:1000BD007508000509050AE50AB4010675A0008555
:1000CD000F80E50AB4020675A001851080E50AB41B
:1000DD00030675A002851180E50AB4040675A00318
:1000ED00851280E50AB4050675A004851380E50A1E
:1000FD00B4060975A005851480750A00D0D0D0E02E
:01010D0032BF
:0B01B800EF1FAC0670011E4C70F62219
:10014A00E4D2937F08FE1201B8C2937F507E001258
:10015A0001B8D2937F0A7E001201B8A2937F057E6E
:04016A00000201B8D6
:10018E00E4FB7D08C293EBC313FBD293309303437E
:0D019E0003807F057E001201B8DDE9AF038C
:0101AB002231
:02016E00AD07DB
:100170007B08C293ED1392937F057E001201B8D2E3
:0E01800093EDC313FDDBEB7F057E000201B89B
:10010E00E4FAFFFEFDFC12014A7FCC12016E7F4421
:10011E0012016E7FC87E001201B812014A7FCC1206
:10012E00016E7FBE12016E12018EAA0712018EEFB2
:0B013E007F00FEEF2AFDE43EFEAF054F
:010149002293
:030000000201AC4E
:0C01AC00787FE4F6D8FD75811602000E85
:00000001FF
