:1000EF0030313233343536373839546573742062D2
:1000FF00792044533138423230004572726F722189
:10010F00436865636B210054656D703A0043656EFB
:02011F0074006A
:0C029200E4FFE4FE0EBE21FC0FBF04F6EA
:01029E00223D
:02026400AD07E4
:0D026600E4FCECC39D50061202920C80F5E2
:010273002268
:10025100C2A0D2A1D2A200000000A2879200C2A235
:02026100A200F9
:010263002278
:0701A1007F051202647F38A4
:1001A80012025140FBC2A0C2A1C2A200008F80006F
:0C01B800000000D2A200000000C2A22241
:0702AB00EF4480FF0201A8EF
:0601C400EE9000EF93FF36
:1001CA0012025140FBD2A0C2A1C2A28F800000003D
:0A01DA0000D2A200000000C2A22221
:100150007F0F1201A31201A11201A17F05120264F7
:100160007F0C1201A87F051202647F061201A81FEE
:0D0170001202647F011201A87F05020264E3
:10005400D2B3E4F5080508E508B402F9C2B3E4F53F
:10006400080508E508B4C8F9D2B3E4F5080508E5BD
:1000740008B40AF9A2B39200E4F5080508E508B447
:04008400C8F9A20015
:010088002255
:10012100E4FED2B300C2B3EFC313FF00D2B3E4F5D0
:10013100080508E508B402F930B3054307808000DB
:0E014100E4F5080508E508B408F90EBE08D478
:01014F00228D
:10008900E4FED2B300C2B3EF1392B3E4F508050856
:10009900E508B40AF9D2B3E4F5080508E508B4019E
:1000A900F9EFC313FF0EBE08D9E4F5080508E50802
:0300B900B404F993
:0100BC002221
:1001E400E4FF1202ABE4FBEB90010993FF600B12F6
:0C01F40001CA0B7F6412026480ED80FEE3
:10020000E4FF1202ABE4FBEB9000F993FF600B12EA
:0A02100001CA0B7F6412026480ED46
:01021A0022C1
:10021B007F401202ABE4FBEB90011693FF600B12D5
:0A022B0001CA0B7F3212026480ED5D
:0102350022A6
:0F0274007F491202AB7F2E1201CA7F3202026451
:100236007F4C1202ABE4FBEB90011C93FF600B12A8
:0A02460001CA0B7F3212026480ED42
:01025000228B
:1000BD00EF75F06484FEEF75F06484E5F075F00A79
:1000CD0084FDEF75F00A84ACF07F461202AB12018D
:1000DD00C4ED93FF1201CAEC93FF1201CA7F3202E5
:0200ED000264AB
:0F028300AE077F4A1202AB1201C47F320202643F
:10017D001200547FCC1200897F44120089E4F508E7
:10018D000508E508B464F91200547FCC1200897F8C
:04019D00BE02008915
:100003001201507F0512026412005450031201E4DE
:1000130012020012021B12027412023612017D1226
:100023000121AB071201218F09EBC4540FFFE5092E
:10003300C454F02FFAEB540F75F00AA4C4540FF90B
:10004300AF021200BDAF011202837F0A1202648065
:01005300CBE1
:0300000002029F5A
:0C029F00787FE4F6D8FD75812002000392
:00000001FF
