:10000300202020205043462D383539312020202010
:10001300002020444120434F4E5645525445522020
:100023002000204B323A20442F412043484F4F5366
:100033004520004B333A454E544552204B343A4504
:100043005849540020202053494E452020574156FB
:100053004520202000202053515541524520205750
:1000630041564520200020545249414E474C4520DB
:100073002057415645200020534157544F4F544871
:100083002020574156452000808386898D90939682
:10009300999C9FA2A5A8ABAEB1B4B7BABCBFC2C569
:1000A300C7CACCCFD1D4D6D8DADDDFE1E3E5E7E9BF
:1000B300EAECEEEFF1F2F4F5F6F7F8F9FAFBFCFDF2
:1000C300FDFEFFFFFFFFFFFFFFFFFFFFFFFFFEFD43
:1000D300FDFCFBFAF9F8F7F6F5F4F2F1EFEEECEAD2
:1000E300E9E7E5E3E1DFDDDAD8D6D4D1CFCCCAC77F
:1000F300C5C2BFBCBAB7B4B1AEABA8A5A29F9C9909
:100103009693908D89868380807C7976726F6C69F3
:100113006663605D5A5755514E4C484543403D3ADE
:10012300383533302E2B29272522201E1C1A18166A
:10013300151311100E0D0B0A090807060504030217
:1001430002010000000000000000000000000102A6
:1001530002030405060708090A0B0D0E10111315F7
:1001630016181A1C1E20222527292B2E303335382A
:100173003A3D404345484C4E5155575A5D6063667E
:08018300696C6F7276797C7ED5
:0D056500C100C101C102C103C104010800B1
:10051F00AD071FED600BE4FEEEC3940D50F20E809D
:01052F00F7D4
:0105300022A8
:04046B007F057E008B
:0A046F00EF1FAC0670011E4C601276
:10047900E4F50AE50AC394FA50EC00000000050A05
:0204890080F100
:01048B00224E
:1004E000E4FC7F0512051FB2B60CBCB4F5D2B67F92
:0604F000647E0002046FAF
:10050B00C2A0D2A1D2A200000000E580339207C2A4
:03051B00A2A20792
:01051E0022BA
:1004AB0012050B40FBC2A0C2A1C2A200008F8000AC
:0C04BB00000000D2A200000000C2A2223B
:05048C0090001493FF35
:1004910012050B40FBD2A0C2A1C2A28F80000000B6
:0A04A10000D2A200000000C2A22257
:100373007F0F7E0012046F7F381204AB12046B7F71
:10038300381204AB12046B7F381204AB12046B7F78
:100393000C1204AB12046B7F061204AB1F7E001217
:0E03A300046F7F011204AB7F057E0002046F21
:07058B00EF4480FF0204AB06
:10054300D2B5D2B400000000C2B500000000C2B4AE
:010553002285
:10055400C2B5D2B400000000D2B500000000C2B49D
:010564002274
:05059200C2B402055493
:0B058000C2B5D2B400000000C2B422DB
:0D057300D2B5D2B400000000C2B5C2B4225F
:10053100D2B5D2B4C2060000000030B502D206C264
:02054100B422E2
:10042500781076087810E6166018EF30E704D2B534
:100435008002C2B5D2B400000000C2B4EF25E0FFCF
:0204450080E253
:010447002292
:10040100780F7608E4FF780FE6166017D2B5D2B4FC
:10041100EF25E0FF30B50543070180035307FEC216
:03042100B480E3C1
:0104240022B5
:1003DA00AE07120543000000007F901204251205A3
:1003EA0031300603D20522EE5477FF120425120596
:0703FA0031300602D205229A
:1003B100E4FEAF06120425120531300603D20522F0
:1003C1000EBEFFEE7EFFAF06120425120531300688
:0803D10003D205221EBE01EE5D
:0103D9002201
:1004C700AF08120425120531300603D205227F0F2B
:0904D7007E0012046F6308FF228D
:10044800E4FDFCED90008B93FF120425120531307A
:100458000603D205220DBD00010CE4B505E5ECB498
:0204680001E1B0
:01046A00226F
:1004F600E4FEAF06120425120531300603D20522AA
:040506000EBEFFEE38
:01050A0022CE
:10018B002004047F0180027F002095047E01800201
:10019B007E00EE5F700302023B05091204E0E509E5
:1001AB0024FE603314604A1460612403707AE4FF08
:1001BB0012058BE4FBEB12048C0BBB10F87F401287
:1001CB00058BE4FBEB90004793FF1204910BBB10E4
:1001DB00F3D200C20380597F4012058BE4FBEB90F6
:1001EB00005893FF1204910BBB10F3C200D2018095
:1001FB003F7F4012058BE4FBEB90006993FF1204E9
:10020B00910BBB10F3C201D20280257F4012058BEC
:10021B00E4FBEB90007A93FF1204910BBB10F3E419
:10022B00F509C202D2038008C203C202C201C20096
:10023B00209605D2041204E0209705C2041204E0B4
:01024B002290
:10024C007F0A7E0012046F120373E4FF12058BE425
:10025C00FEEE90000393FF1204910EBE10F37F404C
:10026C0012058BE4FEEE12048C0EBE10F87FDC7EC1
:10027C000512046FE4FF12058BE4FEEE900025934B
:10028C00FF1204910EBE10F37F4012058BE4FEEEBC
:10029C0090003693FF1204910EBE10F37F401203B0
:1002AC00DA8009A2048200500812044812018B80E3
:1002BC00F2A204820150081204C712018B80F2A230
:1002CC0004820250081203B112018B80F2A2048244
:0B02DC000350D91204F612018B80F2CF
:030000000202E712
:0C02E700787FE4F6D8FD75812002032E1C
:1002F30002024CE493A3F8E493A34003F68001F2D3
:1003030008DFF48029E493A3F85407240CC8C3330B
:10031300C4540F4420C8834004F456800146F6DFDA
:10032300E4800B0102040810204080900565E47E00
:10033300019360BCA3FF543F30E509541FFEE493CF
:10034300A360010ECF54C025E060A840B8E493A396
:10035300FAE493A3F8E493A3C8C582C8CAC583CAC1
:10036300F0A3C8C582C8CAC583CADFE9DEE780BE79
:010572000088
:00000001FF
