:1005430020207777772E646F666C79652E636E2033
:1005530020004C434D313630322054657374206F84
:0B0563006B21000001020304050607E5
:1004DE000A223F065B4F666D7D077F6F112C202031
:1004EE00202020202020202020202020202000132B
:1004FE003D202020202020202020202020202020D1
:04050E002020200089
:070610007FFA1206177FFAC2
:06061700EFC313FFDFFE3C
:01061D0022BA
:0F060100AE071EEE600812061012061080F422DB
:1005EC00AD077F05120601C2A6C2A4C2A500D2A601
:0505FC008D80C2A62263
:1005D500AD077F05120601C2A6D2A4C2A500D2A608
:0705E5008D80C2A6C2A42212
:0405B800AE07AB05DA
:1005BC00EEC39410EE400524B0FC80032480FCAF05
:0905CC00041205ECAF030205D591
:060513008B098A0A890B26
:10051900EFC454F0F50CE4F50DAF0C050CAB09AACA
:100529000AA90B850D8275830012035FFD1205B8B8
:09053900050DE50DC3941040E02E
:010542002296
:100595007F0F1206017F381205EC7F381205EC7FBC
:1005A500381205EC7F061205EC7F0C1205EC7F0175
:0305B5000205EC50
:0A061E00EF1F70011E144E70F7224A
:100479001205957F0F120601750CFF750D05750E96
:10048900437B007A00793D12005F7B007A00793D59
:10049900E4FF120513750CFF750D05750E557B00EC
:1004A9007A00792C12005F7B007A00792C7F011287
:1004B900051374222508F8E6F580E508900566938A
:1004C900F5A07FC87E0012061E0508E508B408E2FB
:0504D900E4F50880DDE0
:030000000203ED0B
:0C03ED00787FE4F6D8FD75814F020434DF
:10035F00BB010CE58229F582E5833AF583E0225053
:10036F0006E92582F8E622BBFE06E92582F8E2229D
:0D037F00E58229F582E5833AF583E49322B7
:10000300E518240CF8E60518227809300702780C65
:10001300E475F0011203B702038C2000EB7F2ED2AC
:10002300008018EF540F2490D43440D4FF30040BD5
:10003300EF24BFB41A0050032461FFE519600215D1
:1000430019051CE51C7002051B30070D7809E475C2
:10005300F0011203B7EF0203A502056E7403D20782
:100063008003E4C207F5188B098A0A890BE4F519A2
:10007300F51BF51CE51960077F2012003E80F5751E
:100083001AFFC201C200C202C203C205C206C208ED
:1000930012000CFF700D3007057F0012004FAF1CDC
:1000A300AE1B22B4255FC2D5C20412000CFF24D0BC
:1000B300B40A00501A75F00A781930D50508B6FF4E
:1000C3000106C6A426F620D5047002D20380D924E3
:1000D300CFB41A00EF5004C2E5D20402024FD2019A
:1000E30080C6D20080C0D20280BCD2D580BAD205ED
:1000F30080B47F2012003E2002077401B51900402E
:10010300F1120003FF12003E020077D208D20680EC
:1001130095120003FB120003FA120003F94A4B7015
:100123000679207A037BFF20022EE519602A7E00E0
:100133008E8275830012035F60060EEE651A70F0FF
:10014300C2D5EBC0E0EAC0E0E9C0E0EE120296D00F
:10015300E0F9D0E0FAD0E0FB12038CFF60AAEBC019
:10016300E0EAC0E0E9C0E012003ED0E02401F9D0AB
:10017300E03400FAD0E0FBE51A0460DCD51AD9803C
:10018300877BFF7A027992D202809C791080027970
:1001930008C206C2088008D2D5790A8004790AC247
:1001A300D5E51A047002F51AE4FAFDFEFF12000306
:1001B300FC7B08200113120003FD7B1030000A12A0
:1001C3000003FE120003FF7B20EC3382D592D5504F
:1001D30013C3E43000069FFFE49EFEE42001039D69
:1001E300FDE49CFCE4CBF8C201EC700CCFCECDCC8B
:1001F300E824F8F870F38017C3EF33FFEE33FEED16
:1002030033FDEC33FCEB33FB994002FB0FD8E9EBF6
:10021300300105F8D0E0C448B201C0E00AEC4D4E0D
:100223004F78207B0070C2EAB51A0040BCC0E012D0
:100233000298D0F0D0E0200104C4C0E0C4B201C0F1
:10024300F0120027D0F0D5F0EB0200771203C701BC
:100253001453018E5800E54C00E14201924F019A7C
:0F02630044019A4900FA4301A0550184460184E1
:100272004501844703405000E92D00ED2E01102B6B
:1002820000F123010E2003292A00A94800000108D9
:100292003F3F3F00790AA2D5200314300509B91067
:1002A200020404B9080104A2D52006025001042068
:1002B20002689202B519005034C0E07F2030031961
:1002C2007F30A20272067205500F1202EFC202C202
:1002D20006C205C2087F30800F300503E9C0E01274
:1002E200003E300503D0E0F9D0E0B519CC30051757
:1002F2007F30B9100C12003E7F583004077F78809F
:1003020003B9080312003E3002057F2D02003E7F32
:10031200202008F87F2B2006F322920280CF286E3D
:10032200756C6C2900D2011200033001F8C2017809
:100332001930D50108F60200A92D50434958120080
:10034200032403B405004001E490033B9312002F01
:0D035200743A12002FD20375190402018EB7
:1003F900020479E493A3F8E493A34003F68001F29D
:1004090008DFF48029E493A3F85407240CC8C33304
:10041900C4540F4420C8834004F456800146F6DFD3
:10042900E4800B01020408102040809004DEE47E81
:10043900019360BCA3FF543F30E509541FFEE493C8
:10044900A360010ECF54C025E060A840B8E493A38F
:10045900FAE493A3F8E493A3C8C582C8CAC583CABA
:10046900F0A3C8C582C8CAC583CADFE9DEE780BE72
:0105120000E8
:10038C00BB010689828A83E0225002E722BBFE026F
:09039C00E32289828A83E49322A2
:1003A500BB010689828A83F0225002F722BBFE0137
:0203B500F32231
:1003B700FAE6FB0808E6F925F0F618E6CA3AF62247
:1003C700D083D082F8E4937012740193700DA3A3C5
:1003D70093F8740193F5828883E4737402936860D9
:0603E700EFA3A3A380DFD9
:10056E00EFB40A07740D120579740A309811A89920
:10057E00B8130CC2983098FDA899C298B811F630ED
:07058E0099FDC299F59922C5
:00000001FF
