:0B010600C0F9A4B0999282F88090FF2D
:10000300EF1FAA0670011E4A600BE4FDEDC3947254
:0500130050EE0D80F726
:0100180022C5
:0A00FB007F08780B740AF608DFFC9A
:0101050022D7
:1000D1007F07740A2FF8E6FE740B2FF8A606DFF2ED
:0500E100E50904F50B28
:0100E60022F7
:1000E7007F07740A2FF8E6FE740B2FF8A606DFF2D7
:0300F700750B0A7C
:0100FA0022E3
:10002E007580FF75A0FFE4F50AF50975087FF5C820
:10003E0075CDFC75CC66D2ADD2AFD2CA1200FBE53F
:10004E0009C39408500E1200D17FF47E01120003F2
:10005E00050980EBE4F5097FE87E03120003E5094C
:10006E00C39408500E1200E77FF47E0112000305C0
:08007E000980EBE4F50980C4E0
:03002B000200864A
:10008600C0E0C083C082C0D075D000C000C2CF75AA
:10009600CDFC75CC66E50AC39408400B750A00755D
:1000A600087F75A0FF8019740B250AF8E6900106F3
:1000B60093F5808508A0E508C3134480F508050A72
:0B00C600D000D0D0D082D083D0E03238
:03000000020019E2
:0C001900787FE4F6D8FD75811202002EFD
:00000001FF
