:0C00F3000A08C0F9A4B0999282F880902D
:0D00BC00F8E6F5801200C91200C91200C953
:0600C900E4FF0FBFC8FCBC
:0100CF00220E
:10009200AE0775A0BFEE75F00A8424081200BC7585
:1000A200A07FEE75F00A84740825F01200BC75A0DA
:0A00B200FF7580FF1200C30200C9B1
:1000E300D2AFD2A8D288E4F512AF1212009280F9EF
:030003000200D028
:1000D000C0E0C0D00512E512B46403751200D0D0A0
:0300E000D0E0323B
:03000000020006F5
:0C000600787FE4F6D8FD75811202004DF1
:100012000200E3E493A3F8E493A34003F68001F221
:1000220008DFF48029E493A3F85407240CC8C333EF
:10003200C4540F4420C8834004F456800146F6DFBE
:10004200E4800B01020408102040809000F3E47E5B
:10005200019360BCA3FF543F30E509541FFEE493B3
:10006200A360010ECF54C025E060A840B8E493A37A
:10007200FAE493A3F8E493A3C8C582C8CAC583CAA5
:10008200F0A3C8C582C8CAC583CADFE9DEE780BE5D
:0100FF000000
:00000001FF
