:030000000202F702
:0C02F700787FE4F6D8FD75810E02030D3F
:0A0303003F065B4F666D7D077F6FBC
:10023F00E4FFFEE4FDFC0DBD00010CED64034C700A
:0C024F00F50FBF00010EEF640B4E70E7CE
:01025B002280
:1002C000E4FDEDC39FE49E500CE4FC0CECD394944D
:0502D00040F90D80ED76
:0102D5002206
:06029000C297C296D2974E
:10029600EFD2977F08A2E092B5D296C296C313DF3B
:0102A600F463
:0102A7002234
:1002D600D2977F08C313D2B5A2B592E7D296C2963B
:0302E600DFF2FF45
:0102E90022F2
:09025C007D08120265E4FD7F8EAD
:10026500AE051202900000AF06120296D296C29712
:010275002266
:0C02EA0012029000001202D6D296C297B9
:0102F60022E5
:10016700120261C297C296D2977FBE1202967E088C
:100177001200EAFF120296740129F9E43AFADEF056
:04018700D296C297B3
:01018B002251
:1001FB00C297C296D2977FBF1202967E081202D682
:10020B00EF120103740129F9E43AFADEF0D296C237
:01021B00974B
:01021C0022BF
:10018C00120261C297C296D2977FFE1202967E1F10
:10019C001200EAFF120296740129F9E43AFADEF031
:0401AC00D296C2978E
:0101B000222C
:10021D00C297C296D2977FFF1202967E1F1202D608
:10022D00EF120103740129F9E43AFADEF0D296C215
:01023D009729
:01023E00229D
:1001B100750E801202617C071200EAFDAF0E120279
:1001C10065740129F9E43AFA050E050EDCEA7D8031
:0501D1007F8E020265B3
:0601D6008B088A09890A6A
:1001DC007E81E4FDAF061202EAAB08AA09A90A8DDA
:0E01EC0082758300EF1201150E0E0DBD07E6A1
:0101FA0022E2
:10027600E4FEEFC3940A400774F62FFF0E80F3EEF8
:09028600C454F0FEEF4206AF067D
:01028F00224C
:0302A8001202EA55
:1002AB00EF540FFE530770EFC3132EFEEF13131310
:0402BB00541F2EFF9F
:0102BF00221C
:100137001202617D507F8012025E7D597F8212021A
:100147005E7D077F8412025E7F8612025C7F8812C3
:10015700025C7D057F8A12025E7D087F8C02026544
:10000300E4FD7F8F1202657F811202A8A9077F8F0B
:100013001202657F831202A8AB077F8F1202657FEE
:10002300851202EA1202ABAA077F8F1202657F874D
:100033001202EA1202AB8F0B7F8F1202657F8912C5
:1000430002EA1202AB8F0C7F8F1202657F8D1202C0
:10005300EA1202AB8F0DEA75F00A8475F00A84E5A3
:10006300F090030393F580E4F5A07F02FE1202C033
:10007300EA75F00A84E5F093F58075A0017F02121A
:1000830002C075808075A0021202C0EB75F00A846D
:1000930075F00A84E5F093F58075A0037F021202E0
:1000A300C0EB75F00A84E5F093F58075A0047F0238
:1000B3001202C075808075A0051202C0E975F00AAE
:1000C3008475F00A84E5F093F58075A0067F02122B
:1000D30002C0E975F00A84E5F093F58075A0077F07
:0700E300021202C00200033B
:06030D001201370200039B
:1000EA00BB010689828A83E0225002E722BBFE0214
:0900FA00E32289828A83E4932247
:10010300BB010689828A83F0225002F722BBFE01DB
:02011300F322D5
:10011500F8BB010DE58229F582E5833AF583E8F020
:10012500225006E92582C8F622BBFE05E92582C8CC
:02013500F222B4
:00000001FF
