:100272003F065B4F666D7D077F6F777C395E7971D4
:10028200696E707574207468652070617373636F32
:100292000064653A20202020202D2D2D2D2D2D2D7E
:1002A2002D002A007269676874202020285E5F5E34
:1002B2002920202000666972737420206572726F93
:1002C2007221212121007365636F6E642065727251
:1002D2006F72212121210074686972642065727233
:1002E2006F722073656520007520746F6D6F727276
:1002F2006F7720285E5F5E2900646566696E6520FF
:10030200746865207061737363006F64653A2020BE
:1003120020202D2D2D2D2D2D2D2D00636F64652078
:0C03220020206973202020206E657700E9
:030806000163008B
:05000300120008D2B458
:0100080022D5
:0D07DA00EFD3940040077E64DEFE1F80F325
:0107E70022EF
:0E05D300900282E52D93FF1207C97F057E007E
:1005E100D3EF9400EE940040147D6E7C00ED1D70FD
:0D05F100011CED4C70F7EF1F70E61E80E35B
:0105FE0022DA
:0A000E00D2B5120003C2B5020008CB
:0A07E800C2B5120003D2B5020008EA
:0806460012000E7FA0120685D0
:10064E00D2B412000830B50BE509C394FA50040574
:08065E000980F2C2B402000899
:10068500E4FEEF25E0FFC2B412000892B5120003A4
:0E0695000EBE08EEC2B4120008D2B502000874
:1005FF00C2B4120008D2B5120008E4FED2B4120041
:10060F0008EF25E0FDA2B5E4334DFFC2B412000898
:04061F000EBE08E81B
:0106230022B4
:1006BD00AC07120646AF0412068512064EAF0512A0
:0806CD00068512064E0207E843
:02066600AD07DE
:10066800120646AF0512068512064E12000E7FA12D
:0C06780012068512064E1205FF1207E85C
:010684002253
:0706D5007F011206DC7F80AB
:1006DC00C2A0C2A28F801205DDD2A21205DDC2A279
:0106EC0022EB
:1007C900D2A0C2A28F801205DDD2A21205DDC2A27B
:0107D90022FD
:10062400E4FF74302FF8E6FE74212FF8E6B50604D3
:10063400D2058004C2057F080FEFC3940840E3A2EB
:0106440005B0
:010645002292
:1006A300E4FB7FC81206DCEBC39563500C9002A4F5
:0906B300E493FF1207C90B80EE6D
:0106BC00221B
:1006ED0074302563F8E4F605633000097421252E76
:0606FD00F8E4F6052E22D0
:1007030074302563F8760105633000097421252EC2
:06071300F87601052E221C
:1007190074302563F8760205633000097421252EAB
:06072900F87602052E2205
:10072F0074302563F8760305633000097421252E94
:06073F00F87603052E22EE
:1007450074302563F8760405633000097421252E7D
:06075500F87604052E22D7
:10075B0074302563F8760505633000097421252E66
:06076B00F87605052E22C0
:1007710074302563F8760605633000097421252E4F
:06078100F87606052E22A9
:1007870074302563F8760705633000097421252E38
:06079700F87607052E2292
:10079D0074302563F8760805633000097421252E21
:0607AD00F87608052E227B
:1007B30074302563F8760905633000097421252E0A
:0607C300F87609052E2264
:10016300D201E563B4080712062492028002C20298
:10017300200103020271C201E4F563F52D1205DDCE
:100183007430252DF8760F052DE52DC3940840ED29
:10019300D28EE4F52C300218F52F1206D5E4F52D96
:1001A3009002A61205D6052DE52DC3941040F12229
:1001B300E4F563C2B7C2B6052FE52F6401702EF5CF
:1001C3002D1205DD7430252DF8760F052DE52DC391
:1001D300940840ED1206D5E4F52DE52D9002B712F3
:1001E30005D8052DE52DC3941040EFD28EE52F647D
:1001F30002702EF52D1205DD7430252DF8760F05CE
:100203002DE52DC3940840ED1206D5E4F52DE52D1B
:100213009002C81205D8052DE52DC3941040EFD2E6
:100223008EE52F64037047F52D1205DD7430252DFF
:10023300F8760F052DE52DC3940840ED1206D5E49D
:10024300F52DE52D9002D91205D8052DE52DC39482
:100253001040EF7FC01206DCE4F52DE52D9002EA95
:0F0263001205D8052DE52DC3941040EFC28E2251
:0A07F20074302563F8760B056322CE
:10059B00E4F5637F801206DCE4F52D1205D3052DFF
:1005AB00E52DC3941040F47FC01206DCE4F52DE575
:1005BB002D9002931205D87430252DF8760F052D4A
:0805CB00E52DC3941040E82265
:10052000E4F509F563D2001206D5E4F52DE52D902A
:1005300002FB1205D87430252DF8760F052DE52D18
:10054000C3941040E87FC01206DCE4F52DE52D9041
:10055000030C1205D8052DE52DC3941040EFD28C65
:010560002278
:1004DE00E4F563D203300339C203F52EF52D7430E3
:1004EE00252DF8760F052DE52DB410F21206D5E464
:1004FE00F52DE52D90031D93FF1207C97F647E0035
:10050E001205E1052DE52DC3941040E6D28EE4F5DB
:02051E002C228D
:0A07FC0074302563F8760F056322C0
:03001B000203BA23
:1003BA00C0E0C083C082C0D075D000C004C005C0F0
:1003CA0006C007758D3C758BB0E52CC39414500498
:1003DA00052C8036C28E752C00C202D2B7D2B61254
:1003EA0006D5752D001205D3052DE52DC3941040B1
:1003FA00F47FC01206DC752D00E52D9002931205DC
:10040A00D8052DE52DC3941040EFD007D006D005AE
:0B041A00D004D0D0D082D083D0E032DC
:03000B0002048F5D
:10048F00C0E0C0F0C083C082C0D075D000C000C033
:10049F0001C002C003C004C005C006C007758C3C74
:1004AF00758AB0E52EC39408500512001E8005C250
:1004BF008C752E00D007D006D005D004D003D00203
:0F04CF00D001D000D0D0D082D083D0F0D0E03296
:10042500C2A27F381206DC7F0C1206DC7F0612069C
:10043500DC1206D5758911758CF8758A30758D3C79
:10044500758BB0C28ED2ABD2AFC28CD2A9E4F52BDC
:10045500C201C202D2B7D2B57F05FE1205E1D2B400
:100465001205DDE4FBAF037D081206BD7F641207AC
:10047500DA0BBB08F0E4FBAF0312066674212BF818
:09048500A6071205DD0BBB08EE11
:01048E00224B
:10056100C2A11204257F801206DCE4F52D1205D309
:10057100052DE52DC3941040F47FC01206DCE4F58F
:100581002DE52D9002931205D8052DE52DC394106C
:0A05910040EF12001E1206A380F8CE
:10001E007590FE8590295329F0E52964F060427FA2
:10002E00647E001205E1E52964F06035859029E5CE
:10003E00292482601B24C0601224E0600924F07021
:10004E00121206ED800D12070380081207198003A5
:10005E0012072FE52964F060088590295329F08056
:10006E00F27590FD8590295329F0E52964F06042E0
:10007E007F647E001205E1E52964F06035859029E4
:10008E00E5292483601B24C0601224E0600924F05B
:10009E007012120745800D12075B800812077180DF
:1000AE0003120787E52964F060088590295329F02B
:1000BE0080F27590FB8590295329F0E52964F06054
:1000CE00427F647E001205E1E52964F0603585907B
:1000DE0029E5292485601B24C0601224E0600924D0
:1000EE00F0701212079D800D1207B3800812016383
:1000FE0080031207F2E52964F060088590295329E0
:10010E00F080F27590F78590295329F0E52964F077
:10011E0060427F647E001205E1E52964F06035855A
:10012E009029E5292489601B24C0601224E060090F
:10013E0024F0701212059B800D1205208008120407
:10014E00DE80031207FCE52964F0600885902953D0
:05015E0029F080F222EF
:0300000002032ECA
:0C032E00787FE4F6D8FD7581630203754A
:10033A00020561E493A3F8E493A34003F68001F273
:10034A0008DFF48029E493A3F85407240CC8C333C4
:10035A00C4540F4420C8834004F456800146F6DF93
:10036A00E4800B0102040810204080900806E47E15
:10037A00019360BCA3FF543F30E509541FFEE49388
:10038A00A360010ECF54C025E060A840B8E493A34F
:10039A00FAE493A3F8E493A3C8C582C8CAC583CA7A
:1003AA00F0A3C8C582C8CAC583CADFE9DEE780BE32
:0108090000EE
:00000001FF
