:0402F300065B4F66F1
:10029500EFD394004011E4FDFC0DBD00010CED64AD
:0702A5007D4C70F51F80E99C
:0102AC00222F
:1002AD00D2920000D2910000000000C29200000026
:0502BD000000C29122C7
:1002C200C29200D2910000000000D2920000000011
:0402D20000C29122B3
:08027C001202AD7FAE12025B1D
:10028400C292000000D2910000000000C291000060
:010294002247
:1002D600D292000000D2910000000000C2910000FE
:0102E60022F5
:10025B007E08AD07C2910000000000ED30E704D22C
:10026B00928002C292D291EF25E0FDFFDEE4C291B3
:01027B002260
:10022F00E4FFFE7D08D292C2910000000000D2913F
:10023F00000000000030920543070180035307FEC2
:0B024F00ED146005EF25E0FEFFDDDC94
:01025A002281
:0201EC008D1074
:1001EE008B138A148915E4F512E512C3951150305C
:1001FE0012027CE5102512FF12025B120284AB1371
:10020E00AA14A9158512827583001200F9FF120235
:10021E005B1202841202C27F14120295051280C96B
:01022E0022AD
:0201A6008D10BA
:1001A8008B128A138914E4FCECC3951150351202A2
:1001B8007CE5102CFF12025B1202841202AD7FAFA5
:1001C80012025B12028412022FAB12AA13A9148C1A
:1001D80082758300EF120126C2911202D61202C262
:0301E8000C80C5C3
:0101EB0022F1
:1001480078087C007D007BFF7A0279F37E007F04CB
:100158001200D3C290E4F5A0FB7A00790875110467
:100168007D041201EC7FC8120295E4F508F509F543
:100178000AF50BFB7A0079087511047D041201A6B3
:100188007408250CF8E6F5807FC81202957FC8121E
:0E0198000295050CE50CB404E7E4F50C80E2DA
:030000000202E712
:0C02E700787FE4F6D8FD7581150201480F
:10000300E709F608DFFA8046E709F208DFFA803EDF
:1000130088828C83E709F0A3DFFA8032E309F608CC
:10002300DFFA8078E309F208DFFA807088828C8334
:10003300E309F0A3DFFA806489828A83E0A3F608E8
:10004300DFFA805889828A83E0A3F208DFFA804CC2
:1000530080D280FA80C680D4806980F28033801099
:1000630080A680EA809A80A880DA80E280CA803302
:1000730089828A83ECFAE493A3C8C582C8CCC5837A
:10008300CCF0A3C8C582C8CCC583CCDFE9DEE7804A
:100093000D89828A83E493A3F608DFF9ECFAA9F0C9
:1000A300EDFB2289828A83ECFAE0A3C8C582C8CC1F
:1000B300C583CCF0A3C8C582C8CCC583CCDFEADE38
:1000C300E880DB89828A83E493A3F208DFF980CC9A
:1000D30088F0EF60010E4E60C388F0ED2402B40493
:1000E3000050B9F582EB2402B4040050AF2323453A
:0600F3008223900053730C
:1000F900BB010CE58229F582E5833AF583E02250BC
:1001090006E92582F8E622BBFE06E92582F8E22205
:0D011900E58229F582E5833AF583E493221F
:10012600F8BB010DE58229F582E5833AF583E8F00F
:10013600225006E92582C8F622BBFE05E92582C8BB
:02014600F222A3
:00000001FF
