:0300000002007883
:0C007800787FE4F6D8FD75810902000EC7
:0A0084003F065B4F666D7D077F6F3E
:0F00690075890175A882758C4CE4F58AD28C22BA
:10005300E4FDEDC39FE49E500CE4FC0CECD39494BC
:0500630040F90D80EDE5
:010068002275
:03000B0002008E62
:09008E00758C4C758A00050832DE
:10000E0012006975E13FE4F508E508C39414503118
:10001E00E50975F00A84E5F090008493F58075A0EB
:10002E00017F057E00120053E50975F00A8475F014
:10003E000A84E5F093F580E4F5A07F051200538065
:05004E00C8050980C196
:00000001FF
