:0300000002001EDD
:0C001E00787FE4F6D8FD758117020065BC
:020012000001EB
:0C015D000A0A3F065B4F666D7D077F6F4E
:0B016A00EF1FAC0670011E4C70F62267
:10012A0075B00FE5B0540F640F60257F647E00122E
:10013A00016AE5B0540F640F6016E5B0540FFF75FD
:10014A00B0F0E5B054F0FEE5B0B4F0FBEF2EFF22BC
:02015A007FFF25
:01015C002280
:03001B000200AA36
:0F00AA00C0E0C083C082C0D075D000C000C007C6
:1000B900758DF8758B00AF1774082FF8E6240AF8C8
:1000C900E6F580EF90001293F5A00517E517700289
:0C00D9000516640245167004F516F517B4
:0D00E500D007D000D0D0D082D083D0E03240
:0F000300438910E4F58DF58BD2AFD2ABD28E22AC
:1000F20012000312012A8F15E515B47E0A0514E5D4
:1001020014B46403E4F514E515B47D09E514700331
:100112007514641514E51475F00A8485F009E51464
:0801220075F00A84F50880CB9A
:10002A000200F2E493A3F8E493A34003F68001F2FA
:10003A0008DFF48029E493A3F85407240CC8C333D7
:10004A00C4540F4420C8834004F456800146F6DFA6
:10005A00E4800B010204081020408090015DE47ED8
:10006A00019360BCA3FF543F30E509541FFEE4939B
:10007A00A360010ECF54C025E060A840B8E493A362
:10008A00FAE493A3F8E493A3C8C582C8CAC583CA8D
:10009A00F0A3C8C582C8CAC583CADFE9DEE780BE45
:010169000095
:00000001FF
