:03000700DFFE22F7
:10028A00AE07AF061EEF600C7FF51200077FF5126E
:05029A00000780EE22C8
:10029F00C0F9A4B0999282F88090FEFDFBF7EFDFD2
:0202AF00BF7F0F
:03000300010800F1
:100255007580FFE5082F9002A993F5A0740B25087A
:0E026500F8E6F5800508E508B50503E4F508A0
:010273002268
:0A02D300438901D2AFD2A9D28C22D8
:03000B0002017D72
:10017D00C0E0C083C082C0D075D000C000C005C033
:01018D00076A
:10018E00758CF8758A307D08E4FF120255050AE574
:10019E000A70020509643245097006F509F50AD29E
:0101AE00014F
:0F01AF00D007D005D000D0D0D082D083D0E0329E
:10027400D2B500D2B40000000000C2B500000000F6
:0602840000C2B4000022DC
:1002B100C2B500D2B40000000000D2B500000000B9
:0102C100221A
:1001BE00E4FEEFA806088002C333D8FC30E704D271
:1001CE00B58002C2B500D2B40000000000C2B40E69
:1001DE00BE08DF0000D2B50000D2B400000030B57A
:0B01EE0004C2008002D200C2B4000076
:0101F90022E3
:10023100E4FFD2B5FE00C2B40000000000D2B40059
:1002410000EF25E0FF30B5010F00000EBE08E6C249
:03025100B40000F6
:010254002287
:1002C200D2B5000000D2B40000000000C2B40000A9
:0102D2002209
:10000E00E4F5131202D37F1412028A3001FDC201ED
:10001E00E4F514E4FF1201FA8F130514E514C394EA
:10002E000540F0E51375F032A4E5F0F51375F00A0E
:10003E008490029F934480F50BE51375F00A84E5D6
:10004E00F093F50CE4F5147F011201FA8F130514E9
:10005E00E514C3940540F0E51375F032A4E5F0F510
:10006E001375F00A8490029F934480F50DE5137585
:10007E00F00A84E5F093F50EE4F5147F021201FA0E
:10008E008F130514E514C3940540F0E51375F03293
:10009E00A4E5F0F51375F00A8490029F934480F561
:1000AE000FE51375F00A84E5F093F510E4F5147F6F
:1000BE00031201FA8F130514E514C3940540F0E5FD
:1000CE001375F032A4E5F0F51375F00A8490029FD3
:1000DE00934480F511E51375F00A84E5F093F5125B
:0300EE00020019F4
:0201FA008F155F
:1001FC001202747F901201BE2000037F0022AF1503
:10020C001201BE2000037F00221202747F911201A2
:10021C00BE2000037F00221202318F161202C2127E
:04022C0002B1AF1656
:0102300022AB
:030000000200F10A
:0C00F100787FE4F6D8FD7581200201380C
:1000FD0002000EE493A3F8E493A34003F68001F20B
:10010D0008DFF48029E493A3F85407240CC8C33303
:10011D00C4540F4420C8834004F456800146F6DFD2
:10012D00E4800B0102040810204080900003E47E5F
:10013D00019360BCA3FF543F30E509541FFEE493C7
:10014D00A360010ECF54C025E060A840B8E493A38E
:10015D00FAE493A3F8E493A3C8C582C8CAC583CAB9
:10016D00F0A3C8C582C8CAC583CADFE9DEE780BE71
:0100060000F9
:00000001FF
