:0600AE001200B47580FD94
:0C00B400E4FFE4FE0EBEFAFC0FBFFAF6FB
:0100C000221D
:0C00C100E4FFE4FE0EBE64FC0FBF64F61A
:0100CD002210
:100003007580FE1200AE7580FB1200B47580F71286
:1000130000B47580EF1200B47580DF1200B47580F0
:10002300BF1200B475807F1200B47580FF7580FE27
:030033000200B414
:1000360075807F1200B47580BF1200B47580DF1220
:1000460000B47580EF1200B47580F71200B47580A5
:0A005600FB1200AE7580FE0200B43C
:0400E6007580FF2200
:0C00CE007580FF1200B4E4F5800200B45D
:10008A00E59054F064F0601B1200C12094037508D7
:10009A00012095037508022096037508032097032B
:0400AA0075080422AF
:10006000E4F50812008AE50824FE600F14601114FC
:100070006013240370ED12000380E812003680E361
:0A0080001200E680DE1200CE80D9E7
:030000000200DA21
:0C00DA00787FE4F6D8FD75810802006014
:00000001FF
