:100BF800CEC2B6C800A1E600CAB1BCE43A00D0C76C
:100C0800C6DA00A1BEC8F1D6BEB5E7D7D3A1BF00EA
:0E0C1800D2BBB6FEC8FDCBC4CEE5C1F9C8D52F
:0A0D9B007F06120D337F0C020D33AA
:0A0DA5007F30120D337F01020D3381
:100D22008F3F120D75D2A0C2A1853F80D2A2C2A26E
:010D3200229E
:100D33008F3E120D75C2A0C2A1853E80D2A2C2A26F
:010D4300228D
:0F0D75007580FFC2A0D2A1D2A22087FDC2A22208
:100B89008F3C8D3DE53CB40108E53D4480FF120DE5
:100B990033E53CB40208E53D4490FF120D33E53CD2
:100BA900B4030AE53D44802408FF120D33E53CB443
:0D0BB900040AE53D44902408FF120D33228C
:100C73008B3C8A3D893EAB3CAA3DA93E12030AFF49
:100C83006010120D227401253EF53EE4353DF53D1D
:030C930080E422D8
:0F0D5500EF7F08A2E09291D290C290C313DFF417
:010D6400226C
:0F0D65007F08C313A29192E7D290C290DFF4FFF0
:010D7400225C
:100BC600F50F7F80120D0DAC07E4FD7F8E120BE34F
:0D0BD600EC547FFD7F80120BE37D807F8E4D
:100BE300AE05C292C290D292120D55AF06120D55A8
:050BF300D290C2922225
:100D0D00C292C290D292EF4401FF120D55120D65A1
:040D1D00D290C2921C
:010D210022AF
:1008ED007F80120D0DEF5470C4540F75F00AA4FEE5
:1008FD00EF540F2E1203507F82120D0DEF5470C462
:10090D00540F75F00AA4FEEF540F2E900001120340
:10091D00627F84120D0DEF5470C4540F75F00AA44C
:10092D00FEEF540F2E9000021203627F86120D0D02
:10093D00EF5470C4540F75F00AA4FEEF540F2E90AF
:10094D0000041203627F8A120D0DEF5410C4540F70
:10095D0075F00AA4FEEF540F2E9000031203627F70
:10096D0088120D0DEF5470C4540F75F00AA4FEEFEC
:10097D00540F2E9000051203627F8C120D0DEF5453
:10098D00F0C4540F75F00AA4FEEF540F2E9000061C
:03099D00020362F0
:0606DB008B3C8A3D893EC4
:1006E100783F7C007D007BFF7A0C79187E007F0EBD
:1006F1001202E4E50FC39402AB3CAA3DA93E90006F
:10070100075032743212036290000874301203628F
:1007110090000612032375F00A8424309000091218
:10072100036290000612032375F00A84E5F0243079
:1007310090000A801A74201203629000087420123B
:100741000362900009742012036290000A7420125F
:100751000362AB3CAA3DA93E90000B742D120362CB
:10076100E508C39402502590000512032375F00A91
:1007710084243090000C120362900005120323754B
:10078100F00A84E5F0243090000D800D90000C7487
:100791002012036290000D7420120362AB3CAA3D4B
:1007A100A93E90000E742D120362E514C394025009
:1007B1002590000412032375F00A84243090000F61
:1007C10012036290000412032375F00A84E5F024F9
:1007D10030900010800D90000F7420120362900081
:1007E100107420120362E50AC394025026AB3CAA9E
:1007F1003DA93E90000312032375F00A84AFF0EF88
:1008010025E0243DF8E6F50CEF25E0243EF8E6F579
:100811000D8006750C20750D20E4F50EAB3CAA3D4C
:08082100A93E900011020362E0
:10082900E515C39402502590000212032375F00ABE
:10083900842430900012120362900002120323757F
:10084900F00A84E5F02430900013800D90001274B2
:100859002012036290001374201203629000147432
:100869003A120362E516C39402502590000112035F
:100879002375F00A84243090001512036290000158
:1008890012032375F00A84E5F02430900016800DD8
:1008990090001574201203629000167420120362EE
:1008A900900017743A120362E513C39402501E12A2
:1008B900030AFF75F00A842430900018120362EFCE
:1008C90075F00A84E5F02430900019800D90001825
:1008D9007420120362900019742012036290001AA6
:0408E900E4020362C0
:100B4B007F80120D0DEF30E734E4FD7F8E120BE347
:100B5B007D077F8C120BE37F88120BE37D257F864D
:100B6B00120BE37D077F8A120BE37D237F84120B2D
:0D0B7B00E37D597F82120BE37D55120BDAEA
:010B8800224A
:0B0D9000EF1FAC0670011E4C70F62235
:100C4F00E4D2B37F08FE120D90C2B37F287E00124C
:100C5F000D90D2B37F077E00120D90A2B37F0A7E54
:040C6F0000020D90E2
:100CB900E4FB7D08C2B3EBC313FBD2B330B30343E8
:0D0CC90003807F047E00120D90DDE9AF0373
:010CD60022FB
:020CF300AD074B
:100CF5007B08C2B3ED1392B37F057E00120D90D22F
:070D0500B3EDC313FDDBEBAE
:010D0C0022C4
:100A4C00E4FAFF120C4F7FCC120CF37F44120CF320
:100A5C007F647E00120D90120C4F7FCC120CF37F32
:100A6C00BE120CF37F327E00120D90120CB9AA0745
:100A7C00120CB9EF54F8602175193A751A2DEFC4A0
:100A8C0054F0F512EA54F0C4540F2512F512F40484
:100A9C00F512EAF4540FF51822EFC454F0F512EAEB
:100AAC0054F0C4540F2512F512EA540FF5187519A9
:100ABC003AE51275F064842430F51AB43104751AD1
:050ACC003122751A2023
:010AD1002202
:100AD200E51275F06484E5F075F00A842430F51BA4
:100AE200E51275F00A84E5F02430F51C751D2EAF71
:100AF200187E007C027D71120384AA06AB070C7D6E
:100B0200E81203967C007D0A120396ED2430F51E4E
:100B12007C007D64AF03AE021203967C007D0A1254
:100B22000396ED2430F51FAF187E007C027D711212
:100B320003847C007D0A1203967C007D0A120396D0
:090B4200ED2430F520E4F5212238
:040C96007F057E0058
:100C9A00D3EF9400EE94004015E4FDFC0DBD000175
:0E0CAA000CED64504C70F5EF1F70E51E80E2FB
:010CB8002219
:100CD700209718120C96E4F50BF513F516F515F594
:0B0CE70014F50AF508120BC6E4F5092D
:010CF20022DF
:1003EB00D295309503020568120C96E50B14B407F1
:1003FB0000400302056890040F75F003A4C5832524
:10040B00F0C5837302042402045002047C0204A886
:10041B000204D40204FF02052A7F80120D0D8F11F6
:10042B00E5115470C4540F75F00AA4FFE511540F75
:10043B002FF5110511751701E511D3943B402FE4EE
:10044B00F5110205537F82120D0D8F11E5115470BA
:10045B00C4540F75F00AA4FFE511540F2FF51105C5
:10046B0011751701E511D3943B4003E4F511020517
:10047B00537F84120D0D8F11E5115470C4540F75F9
:10048B00F00AA4FFE511540F2FF511051175170193
:10049B00E511D394174003E4F5110205537F8A123B
:1004AB000D0D8F11E5115470C4540F75F00AA4FF94
:1004BB00E511540F2FF5110511751701E511D394A3
:1004CB000740037511010205537F86120D0D8F1125
:1004DB00E5115470C4540F75F00AA4FFE511540FC5
:1004EB002FF5110511751701E511D3941F400375F5
:1004FB00110180547F88120D0D8F11E5115470C4BA
:10050B00540F75F00AA4FFE511540F2FF5110511C7
:10051B00751701E511D3940C400375110180297FE8
:10052B008C120D0D8F11E51154F0C4540F75F00A98
:10053B00A4FFE511540F2FF5110511751701E511E6
:10054B00D394634003E4F511E51175F00A84C454A8
:0E055B00F0FFE51175F00A84EF25F0F511228E
:06056900120CD71203EB97
:10056F00D2963096030206DA120C96E50B14B407F6
:10057F000040030206DA90059375F003A4C58325A6
:10058F00F0C583730205A80205D20205FC020626F8
:10059F0002064E02067602069E7F80120D0D8F1107
:1005AF00E5115470C4540F75F00AA4FFE511540FF0
:1005BF002FF5111511751001E511B4FF0375113BDE
:1005CF000206C57F82120D0D8F11E5115470C454B0
:1005DF000F75F00AA4FFE511540F2FF511151175C2
:1005EF001001E511B4FF0375113B0206C57F84129C
:1005FF000D0D8F11E5115470C4540F75F00AA4FF3F
:10060F00E511540F2FF5111511751001E511B4FFF8
:10061F00037511170206C57F8A120D0D8F11E51193
:10062F005470C4540F75F00AA4FFE511540F2FF541
:10063F00111511751001E511700375110780777F82
:10064F0086120D0D8F11E5115470C4540F75F00AF9
:10065F00A4FFE511540F2FF5111511751001E511B8
:10066F00700375111F804F7F88120D0D8F11E511CB
:10067F005470C4540F75F00AA4FFE511540F2FF5F1
:10068F00111511751001E511700375110C80277F7D
:10069F008C120D0D8F11E51154F0C4540F75F00A23
:1006AF00A4FFE511540F2FF5111511751001E51168
:1006BF00B4FF03751163E51175F00A84C454F0FF9C
:0C06CF00E51175F00A84EF25F0F511220A
:100D4400D29420940B120C96050B7509013094FD76
:010D5400227C
:10000300120D44E50B14B4080040030202139000E0
:100013001F75F003A4C58325F0C58373020037025F
:1000230000740200C00201020201440201860201BF
:10003300C802020A120569E51764016005E510B4F8
:100043000111E4FD7F8E120BE3AD11120BDAE4F51F
:1000530017F51030960E30950B0513E513D3940363
:1000630040058000E4F5131209A0E50B640260C4A7
:1000730022E4F513120569E511D394604003E4F516
:1000830011E51764016005E510B40113E4FD7F8EEB
:10009300120BE3AD117F82120BDCE4F517F5103080
:1000A300960E30950B0516E516D394034005800094
:1000B300E4F5161209A0E50B640360B522E4F51616
:1000C300120569E51764016005E510B40113E4FD49
:1000D3007F8E120BE3AD117F84120BDCE4F517F571
:1000E3001030960E30950B0515E515D39403400596
:1000F3008000E4F5151209A0E50B640460BF22E457
:10010300F515120569E51764016005E510B40113DF
:10011300E4FD7F8E120BE3AD117F8A120BDCE4F555
:1001230017F51030960E30950B050AE50AD39403A4
:1001330040058000E4F50A1209A0E50B640560BFE1
:1001430022E4F50A120569E51764016005E510B4B8
:100153000113E4FD7F8E120BE3AD117F86120BDCDE
:10016300E4F517F51030960E30950B0514E514D30E
:10017300940340058000E4F5141209A0E50B64061E
:1001830060BF22E4F514120569E51764016005E513
:1001930010B40113E4FD7F8E120BE3AD117F8812BF
:1001A3000BDCE4F517F51030960E30950B0508E5DA
:1001B30008D3940340058000E4F5081209A0E50B79
:1001C300640760BF22E4F508120569E5176401605E
:1001D30005E510B40113E4FD7F8E120BE3AD117F2F
:1001E3008C120BDCE4F517F51030960E30950B05E9
:1001F3000FE50FD3940340058000E4F50F1209A027
:10020300E50B640860BF22E4F50B120BC6E4F509A5
:0102130022C8
:1009A0007B007A0079211208ED1208291206DB1269
:1009B0000A4C120AD2E4FD7F04120B897BFF7A0BEA
:1009C00079F8120C737D027F04120B897B007A0088
:1009D0007919120C737D067F04120B897BFF7A0B49
:1009E00079FD120C73E4FD7F03120B897BFF7A0CF7
:1009F0007900120C737D037F03120B897B007A0050
:100A00007933120C737D037F02120B897B007A000D
:100A10007928120C73E4FD7F02120B897BFF7A0C9C
:100A20007906120C737D027F02120B897B007A001B
:100A3000790C120C737D017F01120B897BFF7A0CFC
:0C0A4000790B120C737FF47E01020C9AFB
:100C2600120D9B120DA5120C4F120B4BE4F517F586
:100C360010F509E509B4010512000380F6E509700F
:090C4600F21209A0120D4480F421
:03000000020D846A
:0C0D8400787FE4F6D8FD75814C020C2647
:10021400E709F608DFFA8046E709F208DFFA803ECC
:1002240088828C83E709F0A3DFFA8032E309F608B9
:10023400DFFA8078E309F208DFFA807088828C8321
:10024400E309F0A3DFFA806489828A83E0A3F608D5
:10025400DFFA805889828A83E0A3F208DFFA804CAF
:1002640080D280FA80C680D4806980F28033801086
:1002740080A680EA809A80A880DA80E280CA8033EF
:1002840089828A83ECFAE493A3C8C582C8CCC58367
:10029400CCF0A3C8C582C8CCC583CCDFE9DEE78037
:1002A4000D89828A83E493A3F608DFF9ECFAA9F0B6
:1002B400EDFB2289828A83ECFAE0A3C8C582C8CC0C
:1002C400C583CCF0A3C8C582C8CCC583CCDFEADE25
:1002D400E880DB89828A83E493A3F208DFF980CC87
:1002E40088F0EF60010E4E60C388F0ED2402B40480
:1002F4000050B9F582EB2402B4040050AF23234527
:06030400822390026473E5
:10030A00BB010689828A83E0225002E722BBFE02F1
:09031A00E32289828A83E4932224
:10032300BB010CE58229F582E5833AF583E022508F
:1003330006E92582F8E622BBFE06E92582F8E222D9
:0D034300E58229F582E5833AF583E49322F3
:10035000BB010689828A83F0225002F722BBFE018C
:02036000F32286
:10036200F8BB010DE58229F582E5833AF583E8F0D1
:10037200225006E92582C8F622BBFE05E92582C87D
:02038200F22265
:10038400EF8DF0A4A8F0CF8CF0A428CE8DF0A42E8D
:02039400FE2247
:10039600BC000BBE0029EF8DF084FFADF022E4CC4B
:1003A600F875F008EF2FFFEE33FEEC33FCEE9DEC14
:1003B600984005FCEE9DFE0FD5F0E9E4CEFD22ED5A
:1003C600F8F5F0EE8420D21CFEADF075F008EF2FA4
:1003D600FFED33FD4007985006D5F0F222C398FD95
:0503E6000FD5F0EA2232
:00000001FF
